{
  "_format": "hh-sol-artifact-1",
  "contractName": "GitBitNFT",
  "sourceName": "contracts/GitBit.sol",
  "abi": [
    {
      "inputs": [],
      "stateMutability": "nonpayable",
      "type": "constructor"
    },
    {
      "inputs": [
        {
          "internalType": "address",
          "name": "sender",
          "type": "address"
        },
        {
          "internalType": "uint256",
          "name": "balance",
          "type": "uint256"
        },
        {
          "internalType": "uint256",
          "name": "needed",
          "type": "uint256"
        },
        {
          "internalType": "uint256",
          "name": "tokenId",
          "type": "uint256"
        }
      ],
      "name": "ERC1155InsufficientBalance",
      "type": "error"
    },
    {
      "inputs": [
        {
          "internalType": "address",
          "name": "approver",
          "type": "address"
        }
      ],
      "name": "ERC1155InvalidApprover",
      "type": "error"
    },
    {
      "inputs": [
        {
          "internalType": "uint256",
          "name": "idsLength",
          "type": "uint256"
        },
        {
          "internalType": "uint256",
          "name": "valuesLength",
          "type": "uint256"
        }
      ],
      "name": "ERC1155InvalidArrayLength",
      "type": "error"
    },
    {
      "inputs": [
        {
          "internalType": "address",
          "name": "operator",
          "type": "address"
        }
      ],
      "name": "ERC1155InvalidOperator",
      "type": "error"
    },
    {
      "inputs": [
        {
          "internalType": "address",
          "name": "receiver",
          "type": "address"
        }
      ],
      "name": "ERC1155InvalidReceiver",
      "type": "error"
    },
    {
      "inputs": [
        {
          "internalType": "address",
          "name": "sender",
          "type": "address"
        }
      ],
      "name": "ERC1155InvalidSender",
      "type": "error"
    },
    {
      "inputs": [
        {
          "internalType": "address",
          "name": "operator",
          "type": "address"
        },
        {
          "internalType": "address",
          "name": "owner",
          "type": "address"
        }
      ],
      "name": "ERC1155MissingApprovalForAll",
      "type": "error"
    },
    {
      "anonymous": false,
      "inputs": [
        {
          "indexed": true,
          "internalType": "address",
          "name": "account",
          "type": "address"
        },
        {
          "indexed": true,
          "internalType": "address",
          "name": "operator",
          "type": "address"
        },
        {
          "indexed": false,
          "internalType": "bool",
          "name": "approved",
          "type": "bool"
        }
      ],
      "name": "ApprovalForAll",
      "type": "event"
    },
    {
      "anonymous": false,
      "inputs": [
        {
          "indexed": true,
          "internalType": "address",
          "name": "operator",
          "type": "address"
        },
        {
          "indexed": true,
          "internalType": "address",
          "name": "from",
          "type": "address"
        },
        {
          "indexed": true,
          "internalType": "address",
          "name": "to",
          "type": "address"
        },
        {
          "indexed": false,
          "internalType": "uint256[]",
          "name": "ids",
          "type": "uint256[]"
        },
        {
          "indexed": false,
          "internalType": "uint256[]",
          "name": "values",
          "type": "uint256[]"
        }
      ],
      "name": "TransferBatch",
      "type": "event"
    },
    {
      "anonymous": false,
      "inputs": [
        {
          "indexed": true,
          "internalType": "address",
          "name": "operator",
          "type": "address"
        },
        {
          "indexed": true,
          "internalType": "address",
          "name": "from",
          "type": "address"
        },
        {
          "indexed": true,
          "internalType": "address",
          "name": "to",
          "type": "address"
        },
        {
          "indexed": false,
          "internalType": "uint256",
          "name": "id",
          "type": "uint256"
        },
        {
          "indexed": false,
          "internalType": "uint256",
          "name": "value",
          "type": "uint256"
        }
      ],
      "name": "TransferSingle",
      "type": "event"
    },
    {
      "anonymous": false,
      "inputs": [
        {
          "indexed": false,
          "internalType": "string",
          "name": "value",
          "type": "string"
        },
        {
          "indexed": true,
          "internalType": "uint256",
          "name": "id",
          "type": "uint256"
        }
      ],
      "name": "URI",
      "type": "event"
    },
    {
      "inputs": [],
      "name": "GOLD",
      "outputs": [
        {
          "internalType": "uint256",
          "name": "",
          "type": "uint256"
        }
      ],
      "stateMutability": "view",
      "type": "function"
    },
    {
      "inputs": [],
      "name": "SHIELD",
      "outputs": [
        {
          "internalType": "uint256",
          "name": "",
          "type": "uint256"
        }
      ],
      "stateMutability": "view",
      "type": "function"
    },
    {
      "inputs": [],
      "name": "SILVER",
      "outputs": [
        {
          "internalType": "uint256",
          "name": "",
          "type": "uint256"
        }
      ],
      "stateMutability": "view",
      "type": "function"
    },
    {
      "inputs": [],
      "name": "SWORD",
      "outputs": [
        {
          "internalType": "uint256",
          "name": "",
          "type": "uint256"
        }
      ],
      "stateMutability": "view",
      "type": "function"
    },
    {
      "inputs": [],
      "name": "THORS_HAMMER",
      "outputs": [
        {
          "internalType": "uint256",
          "name": "",
          "type": "uint256"
        }
      ],
      "stateMutability": "view",
      "type": "function"
    },
    {
      "inputs": [
        {
          "internalType": "address",
          "name": "account",
          "type": "address"
        },
        {
          "internalType": "uint256",
          "name": "id",
          "type": "uint256"
        }
      ],
      "name": "balanceOf",
      "outputs": [
        {
          "internalType": "uint256",
          "name": "",
          "type": "uint256"
        }
      ],
      "stateMutability": "view",
      "type": "function"
    },
    {
      "inputs": [
        {
          "internalType": "address[]",
          "name": "accounts",
          "type": "address[]"
        },
        {
          "internalType": "uint256[]",
          "name": "ids",
          "type": "uint256[]"
        }
      ],
      "name": "balanceOfBatch",
      "outputs": [
        {
          "internalType": "uint256[]",
          "name": "",
          "type": "uint256[]"
        }
      ],
      "stateMutability": "view",
      "type": "function"
    },
    {
      "inputs": [
        {
          "internalType": "address",
          "name": "account",
          "type": "address"
        },
        {
          "internalType": "address",
          "name": "operator",
          "type": "address"
        }
      ],
      "name": "isApprovedForAll",
      "outputs": [
        {
          "internalType": "bool",
          "name": "",
          "type": "bool"
        }
      ],
      "stateMutability": "view",
      "type": "function"
    },
    {
      "inputs": [
        {
          "internalType": "address",
          "name": "from",
          "type": "address"
        },
        {
          "internalType": "address",
          "name": "to",
          "type": "address"
        },
        {
          "internalType": "uint256[]",
          "name": "ids",
          "type": "uint256[]"
        },
        {
          "internalType": "uint256[]",
          "name": "values",
          "type": "uint256[]"
        },
        {
          "internalType": "bytes",
          "name": "data",
          "type": "bytes"
        }
      ],
      "name": "safeBatchTransferFrom",
      "outputs": [],
      "stateMutability": "nonpayable",
      "type": "function"
    },
    {
      "inputs": [
        {
          "internalType": "address",
          "name": "from",
          "type": "address"
        },
        {
          "internalType": "address",
          "name": "to",
          "type": "address"
        },
        {
          "internalType": "uint256",
          "name": "id",
          "type": "uint256"
        },
        {
          "internalType": "uint256",
          "name": "value",
          "type": "uint256"
        },
        {
          "internalType": "bytes",
          "name": "data",
          "type": "bytes"
        }
      ],
      "name": "safeTransferFrom",
      "outputs": [],
      "stateMutability": "nonpayable",
      "type": "function"
    },
    {
      "inputs": [
        {
          "internalType": "address",
          "name": "operator",
          "type": "address"
        },
        {
          "internalType": "bool",
          "name": "approved",
          "type": "bool"
        }
      ],
      "name": "setApprovalForAll",
      "outputs": [],
      "stateMutability": "nonpayable",
      "type": "function"
    },
    {
      "inputs": [
        {
          "internalType": "bytes4",
          "name": "interfaceId",
          "type": "bytes4"
        }
      ],
      "name": "supportsInterface",
      "outputs": [
        {
          "internalType": "bool",
          "name": "",
          "type": "bool"
        }
      ],
      "stateMutability": "view",
      "type": "function"
    },
    {
      "inputs": [
        {
          "internalType": "uint256",
          "name": "",
          "type": "uint256"
        }
      ],
      "name": "uri",
      "outputs": [
        {
          "internalType": "string",
          "name": "",
          "type": "string"
        }
      ],
      "stateMutability": "view",
      "type": "function"
    }
  ],
  "bytecode": "0x608060405234801561001057600080fd5b50604051806060016040528060218152602001613113602191396100398161010a60201b60201c565b50610064336000670de0b6b3a76400006040518060200160405280600081525061011d60201b60201c565b61008e336001670de0b6b3a76400006040518060200160405280600081525061011d60201b60201c565b6100b133600260016040518060200160405280600081525061011d60201b60201c565b6100db336003670de0b6b3a76400006040518060200160405280600081525061011d60201b60201c565b610105336004670de0b6b3a76400006040518060200160405280600081525061011d60201b60201c565b61111d565b80600290816101199190610c3e565b5050565b600073ffffffffffffffffffffffffffffffffffffffff168473ffffffffffffffffffffffffffffffffffffffff160361018f5760006040517f57f447ce0000000000000000000000000000000000000000000000000000000081526004016101869190610d51565b60405180910390fd5b6000806101a285856101c260201b60201c565b915091506101ba6000878484876101f260201b60201c565b505050505050565b60608060405191506001825283602083015260408201905060018152826020820152604081016040529250929050565b610204858585856102bc60201b60201c565b600073ffffffffffffffffffffffffffffffffffffffff168473ffffffffffffffffffffffffffffffffffffffff16146102b557600061024861066a60201b60201c565b9050600184510361029e57600061026960008661067260201b90919060201c565b9050600061028160008661067260201b90919060201c565b905061029783898985858961068660201b60201c565b50506102b3565b6102b281878787878761083a60201b60201c565b5b505b5050505050565b805182511461030657815181516040517f5b0599910000000000000000000000000000000000000000000000000000000081526004016102fd929190610d7b565b60405180910390fd5b600061031661066a60201b60201c565b905060005b8351811015610525576000610339828661067260201b90919060201c565b90506000610350838661067260201b90919060201c565b9050600073ffffffffffffffffffffffffffffffffffffffff168873ffffffffffffffffffffffffffffffffffffffff161461047d57600080600084815260200190815260200160002060008a73ffffffffffffffffffffffffffffffffffffffff1673ffffffffffffffffffffffffffffffffffffffff1681526020019081526020016000205490508181101561042557888183856040517f03dee4c500000000000000000000000000000000000000000000000000000000815260040161041c9493929190610da4565b60405180910390fd5b81810360008085815260200190815260200160002060008b73ffffffffffffffffffffffffffffffffffffffff1673ffffffffffffffffffffffffffffffffffffffff16815260200190815260200160002081905550505b600073ffffffffffffffffffffffffffffffffffffffff168773ffffffffffffffffffffffffffffffffffffffff1614610518578060008084815260200190815260200160002060008973ffffffffffffffffffffffffffffffffffffffff1673ffffffffffffffffffffffffffffffffffffffff16815260200190815260200160002060008282546105109190610e18565b925050819055505b505080600101905061031b565b5060018351036105e457600061054560008561067260201b90919060201c565b9050600061055d60008561067260201b90919060201c565b90508573ffffffffffffffffffffffffffffffffffffffff168773ffffffffffffffffffffffffffffffffffffffff168473ffffffffffffffffffffffffffffffffffffffff167fc3d58168c5ae7397731d063d5bbf3d657854427343f4c083240f7aacaa2d0f6285856040516105d5929190610d7b565b60405180910390a45050610663565b8373ffffffffffffffffffffffffffffffffffffffff168573ffffffffffffffffffffffffffffffffffffffff168273ffffffffffffffffffffffffffffffffffffffff167f4a39dc06d4c0dbc64b70af90fd698a233a518aa5d07e595d983b8c0526c8f7fb868660405161065a929190610f0a565b60405180910390a45b5050505050565b600033905090565b600060208202602084010151905092915050565b60008473ffffffffffffffffffffffffffffffffffffffff163b1115610832578373ffffffffffffffffffffffffffffffffffffffff1663f23a6e6187878686866040518663ffffffff1660e01b81526004016106e7959493929190610fd1565b6020604051808303816000875af192505050801561072357506040513d601f19601f820116820180604052508101906107209190611088565b60015b6107a7573d8060008114610753576040519150601f19603f3d011682016040523d82523d6000602084013e610758565b606091505b50600081510361079f57846040517f57f447ce0000000000000000000000000000000000000000000000000000000081526004016107969190610d51565b60405180910390fd5b805181602001fd5b63f23a6e6160e01b7bffffffffffffffffffffffffffffffffffffffffffffffffffffffff1916817bffffffffffffffffffffffffffffffffffffffffffffffffffffffff19161461083057846040517f57f447ce0000000000000000000000000000000000000000000000000000000081526004016108279190610d51565b60405180910390fd5b505b505050505050565b60008473ffffffffffffffffffffffffffffffffffffffff163b11156109e6578373ffffffffffffffffffffffffffffffffffffffff1663bc197c8187878686866040518663ffffffff1660e01b815260040161089b9594939291906110b5565b6020604051808303816000875af19250505080156108d757506040513d601f19601f820116820180604052508101906108d49190611088565b60015b61095b573d8060008114610907576040519150601f19603f3d011682016040523d82523d6000602084013e61090c565b606091505b50600081510361095357846040517f57f447ce00000000000000000000000000000000000000000000000000000000815260040161094a9190610d51565b60405180910390fd5b805181602001fd5b63bc197c8160e01b7bffffffffffffffffffffffffffffffffffffffffffffffffffffffff1916817bffffffffffffffffffffffffffffffffffffffffffffffffffffffff1916146109e457846040517f57f447ce0000000000000000000000000000000000000000000000000000000081526004016109db9190610d51565b60405180910390fd5b505b505050505050565b600081519050919050565b7f4e487b7100000000000000000000000000000000000000000000000000000000600052604160045260246000fd5b7f4e487b7100000000000000000000000000000000000000000000000000000000600052602260045260246000fd5b60006002820490506001821680610a6f57607f821691505b602082108103610a8257610a81610a28565b5b50919050565b60008190508160005260206000209050919050565b60006020601f8301049050919050565b600082821b905092915050565b600060088302610aea7fffffffffffffffffffffffffffffffffffffffffffffffffffffffffffffffff82610aad565b610af48683610aad565b95508019841693508086168417925050509392505050565b6000819050919050565b6000819050919050565b6000610b3b610b36610b3184610b0c565b610b16565b610b0c565b9050919050565b6000819050919050565b610b5583610b20565b610b69610b6182610b42565b848454610aba565b825550505050565b600090565b610b7e610b71565b610b89818484610b4c565b505050565b5b81811015610bad57610ba2600082610b76565b600181019050610b8f565b5050565b601f821115610bf257610bc381610a88565b610bcc84610a9d565b81016020851015610bdb578190505b610bef610be785610a9d565b830182610b8e565b50505b505050565b600082821c905092915050565b6000610c1560001984600802610bf7565b1980831691505092915050565b6000610c2e8383610c04565b9150826002028217905092915050565b610c47826109ee565b67ffffffffffffffff811115610c6057610c5f6109f9565b5b610c6a8254610a57565b610c75828285610bb1565b600060209050601f831160018114610ca85760008415610c96578287015190505b610ca08582610c22565b865550610d08565b601f198416610cb686610a88565b60005b82811015610cde57848901518255600182019150602085019450602081019050610cb9565b86831015610cfb5784890151610cf7601f891682610c04565b8355505b6001600288020188555050505b505050505050565b600073ffffffffffffffffffffffffffffffffffffffff82169050919050565b6000610d3b82610d10565b9050919050565b610d4b81610d30565b82525050565b6000602082019050610d666000830184610d42565b92915050565b610d7581610b0c565b82525050565b6000604082019050610d906000830185610d6c565b610d9d6020830184610d6c565b9392505050565b6000608082019050610db96000830187610d42565b610dc66020830186610d6c565b610dd36040830185610d6c565b610de06060830184610d6c565b95945050505050565b7f4e487b7100000000000000000000000000000000000000000000000000000000600052601160045260246000fd5b6000610e2382610b0c565b9150610e2e83610b0c565b9250828201905080821115610e4657610e45610de9565b5b92915050565b600081519050919050565b600082825260208201905092915050565b6000819050602082019050919050565b610e8181610b0c565b82525050565b6000610e938383610e78565b60208301905092915050565b6000602082019050919050565b6000610eb782610e4c565b610ec18185610e57565b9350610ecc83610e68565b8060005b83811015610efd578151610ee48882610e87565b9750610eef83610e9f565b925050600181019050610ed0565b5085935050505092915050565b60006040820190508181036000830152610f248185610eac565b90508181036020830152610f388184610eac565b90509392505050565b600081519050919050565b600082825260208201905092915050565b60005b83811015610f7b578082015181840152602081019050610f60565b60008484015250505050565b6000601f19601f8301169050919050565b6000610fa382610f41565b610fad8185610f4c565b9350610fbd818560208601610f5d565b610fc681610f87565b840191505092915050565b600060a082019050610fe66000830188610d42565b610ff36020830187610d42565b6110006040830186610d6c565b61100d6060830185610d6c565b818103608083015261101f8184610f98565b90509695505050505050565b600080fd5b60007fffffffff0000000000000000000000000000000000000000000000000000000082169050919050565b61106581611030565b811461107057600080fd5b50565b6000815190506110828161105c565b92915050565b60006020828403121561109e5761109d61102b565b5b60006110ac84828501611073565b91505092915050565b600060a0820190506110ca6000830188610d42565b6110d76020830187610d42565b81810360408301526110e98186610eac565b905081810360608301526110fd8185610eac565b905081810360808301526111118184610f98565b90509695505050505050565b611fe78061112c6000396000f3fe608060405234801561001057600080fd5b50600436106100ce5760003560e01c80634e1273f41161008c578063d562e20411610066578063d562e20414610225578063e3e55f0814610243578063e985e9c514610261578063f242432a14610291576100ce565b80634e1273f4146101bb5780635b2725ed146101eb578063a22cb46514610209576100ce565b8062fdd58e146100d357806301ffc9a7146101035780630e89341c1461013357806313dc989f146101635780632eb2c2d6146101815780633e4bee381461019d575b600080fd5b6100ed60048036038101906100e89190611440565b6102ad565b6040516100fa919061148f565b60405180910390f35b61011d60048036038101906101189190611502565b610307565b60405161012a919061154a565b60405180910390f35b61014d60048036038101906101489190611565565b6103e9565b60405161015a9190611622565b60405180910390f35b61016b61047d565b604051610178919061148f565b60405180910390f35b61019b60048036038101906101969190611841565b610482565b005b6101a561052a565b6040516101b2919061148f565b60405180910390f35b6101d560048036038101906101d091906119d3565b61052f565b6040516101e29190611b09565b60405180910390f35b6101f3610638565b604051610200919061148f565b60405180910390f35b610223600480360381019061021e9190611b57565b61063d565b005b61022d610653565b60405161023a919061148f565b60405180910390f35b61024b610658565b604051610258919061148f565b60405180910390f35b61027b60048036038101906102769190611b97565b61065d565b604051610288919061154a565b60405180910390f35b6102ab60048036038101906102a69190611bd7565b6106f1565b005b600080600083815260200190815260200160002060008473ffffffffffffffffffffffffffffffffffffffff1673ffffffffffffffffffffffffffffffffffffffff16815260200190815260200160002054905092915050565b60007fd9b67a26000000000000000000000000000000000000000000000000000000007bffffffffffffffffffffffffffffffffffffffffffffffffffffffff1916827bffffffffffffffffffffffffffffffffffffffffffffffffffffffff191614806103d257507f0e89341c000000000000000000000000000000000000000000000000000000007bffffffffffffffffffffffffffffffffffffffffffffffffffffffff1916827bffffffffffffffffffffffffffffffffffffffffffffffffffffffff1916145b806103e257506103e182610799565b5b9050919050565b6060600280546103f890611c9d565b80601f016020809104026020016040519081016040528092919081815260200182805461042490611c9d565b80156104715780601f1061044657610100808354040283529160200191610471565b820191906000526020600020905b81548152906001019060200180831161045457829003601f168201915b50505050509050919050565b600381565b600061048c610803565b90508073ffffffffffffffffffffffffffffffffffffffff168673ffffffffffffffffffffffffffffffffffffffff16141580156104d157506104cf868261065d565b155b156105155780866040517fe237d92200000000000000000000000000000000000000000000000000000000815260040161050c929190611cdd565b60405180910390fd5b610522868686868661080b565b505050505050565b600081565b6060815183511461057b57815183516040517f5b059991000000000000000000000000000000000000000000000000000000008152600401610572929190611d06565b60405180910390fd5b6000835167ffffffffffffffff81111561059857610597611649565b5b6040519080825280602002602001820160405280156105c65781602001602082028036833780820191505090505b50905060005b845181101561062d576106036105eb828761090390919063ffffffff16565b6105fe838761091790919063ffffffff16565b6102ad565b82828151811061061657610615611d2f565b5b6020026020010181815250508060010190506105cc565b508091505092915050565b600481565b61064f610648610803565b838361092b565b5050565b600281565b600181565b6000600160008473ffffffffffffffffffffffffffffffffffffffff1673ffffffffffffffffffffffffffffffffffffffff16815260200190815260200160002060008373ffffffffffffffffffffffffffffffffffffffff1673ffffffffffffffffffffffffffffffffffffffff16815260200190815260200160002060009054906101000a900460ff16905092915050565b60006106fb610803565b90508073ffffffffffffffffffffffffffffffffffffffff168673ffffffffffffffffffffffffffffffffffffffff1614158015610740575061073e868261065d565b155b156107845780866040517fe237d92200000000000000000000000000000000000000000000000000000000815260040161077b929190611cdd565b60405180910390fd5b6107918686868686610a9b565b505050505050565b60007f01ffc9a7000000000000000000000000000000000000000000000000000000007bffffffffffffffffffffffffffffffffffffffffffffffffffffffff1916827bffffffffffffffffffffffffffffffffffffffffffffffffffffffff1916149050919050565b600033905090565b600073ffffffffffffffffffffffffffffffffffffffff168473ffffffffffffffffffffffffffffffffffffffff160361087d5760006040517f57f447ce0000000000000000000000000000000000000000000000000000000081526004016108749190611d5e565b60405180910390fd5b600073ffffffffffffffffffffffffffffffffffffffff168573ffffffffffffffffffffffffffffffffffffffff16036108ef5760006040517f01a835140000000000000000000000000000000000000000000000000000000081526004016108e69190611d5e565b60405180910390fd5b6108fc8585858585610ba6565b5050505050565b600060208202602084010151905092915050565b600060208202602084010151905092915050565b600073ffffffffffffffffffffffffffffffffffffffff168273ffffffffffffffffffffffffffffffffffffffff160361099d5760006040517fced3e1000000000000000000000000000000000000000000000000000000000081526004016109949190611d5e565b60405180910390fd5b80600160008573ffffffffffffffffffffffffffffffffffffffff1673ffffffffffffffffffffffffffffffffffffffff16815260200190815260200160002060008473ffffffffffffffffffffffffffffffffffffffff1673ffffffffffffffffffffffffffffffffffffffff16815260200190815260200160002060006101000a81548160ff0219169083151502179055508173ffffffffffffffffffffffffffffffffffffffff168373ffffffffffffffffffffffffffffffffffffffff167f17307eab39ab6107e8899845ad3d59bd9653f200f220920489ca2b5937696c3183604051610a8e919061154a565b60405180910390a3505050565b600073ffffffffffffffffffffffffffffffffffffffff168473ffffffffffffffffffffffffffffffffffffffff1603610b0d5760006040517f57f447ce000000000000000000000000000000000000000000000000000000008152600401610b049190611d5e565b60405180910390fd5b600073ffffffffffffffffffffffffffffffffffffffff168573ffffffffffffffffffffffffffffffffffffffff1603610b7f5760006040517f01a83514000000000000000000000000000000000000000000000000000000008152600401610b769190611d5e565b60405180910390fd5b600080610b8c8585610c58565b91509150610b9d8787848487610ba6565b50505050505050565b610bb285858585610c88565b600073ffffffffffffffffffffffffffffffffffffffff168473ffffffffffffffffffffffffffffffffffffffff1614610c51576000610bf0610803565b90506001845103610c40576000610c1160008661091790919063ffffffff16565b90506000610c2960008661091790919063ffffffff16565b9050610c39838989858589611030565b5050610c4f565b610c4e8187878787876111e4565b5b505b5050505050565b60608060405191506001825283602083015260408201905060018152826020820152604081016040529250929050565b8051825114610cd257815181516040517f5b059991000000000000000000000000000000000000000000000000000000008152600401610cc9929190611d06565b60405180910390fd5b6000610cdc610803565b905060005b8351811015610eeb576000610cff828661091790919063ffffffff16565b90506000610d16838661091790919063ffffffff16565b9050600073ffffffffffffffffffffffffffffffffffffffff168873ffffffffffffffffffffffffffffffffffffffff1614610e4357600080600084815260200190815260200160002060008a73ffffffffffffffffffffffffffffffffffffffff1673ffffffffffffffffffffffffffffffffffffffff16815260200190815260200160002054905081811015610deb57888183856040517f03dee4c5000000000000000000000000000000000000000000000000000000008152600401610de29493929190611d79565b60405180910390fd5b81810360008085815260200190815260200160002060008b73ffffffffffffffffffffffffffffffffffffffff1673ffffffffffffffffffffffffffffffffffffffff16815260200190815260200160002081905550505b600073ffffffffffffffffffffffffffffffffffffffff168773ffffffffffffffffffffffffffffffffffffffff1614610ede578060008084815260200190815260200160002060008973ffffffffffffffffffffffffffffffffffffffff1673ffffffffffffffffffffffffffffffffffffffff1681526020019081526020016000206000828254610ed69190611ded565b925050819055505b5050806001019050610ce1565b506001835103610faa576000610f0b60008561091790919063ffffffff16565b90506000610f2360008561091790919063ffffffff16565b90508573ffffffffffffffffffffffffffffffffffffffff168773ffffffffffffffffffffffffffffffffffffffff168473ffffffffffffffffffffffffffffffffffffffff167fc3d58168c5ae7397731d063d5bbf3d657854427343f4c083240f7aacaa2d0f628585604051610f9b929190611d06565b60405180910390a45050611029565b8373ffffffffffffffffffffffffffffffffffffffff168573ffffffffffffffffffffffffffffffffffffffff168273ffffffffffffffffffffffffffffffffffffffff167f4a39dc06d4c0dbc64b70af90fd698a233a518aa5d07e595d983b8c0526c8f7fb8686604051611020929190611e21565b60405180910390a45b5050505050565b60008473ffffffffffffffffffffffffffffffffffffffff163b11156111dc578373ffffffffffffffffffffffffffffffffffffffff1663f23a6e6187878686866040518663ffffffff1660e01b8152600401611091959493929190611ead565b6020604051808303816000875af19250505080156110cd57506040513d601f19601f820116820180604052508101906110ca9190611f1c565b60015b611151573d80600081146110fd576040519150601f19603f3d011682016040523d82523d6000602084013e611102565b606091505b50600081510361114957846040517f57f447ce0000000000000000000000000000000000000000000000000000000081526004016111409190611d5e565b60405180910390fd5b805181602001fd5b63f23a6e6160e01b7bffffffffffffffffffffffffffffffffffffffffffffffffffffffff1916817bffffffffffffffffffffffffffffffffffffffffffffffffffffffff1916146111da57846040517f57f447ce0000000000000000000000000000000000000000000000000000000081526004016111d19190611d5e565b60405180910390fd5b505b505050505050565b60008473ffffffffffffffffffffffffffffffffffffffff163b1115611390578373ffffffffffffffffffffffffffffffffffffffff1663bc197c8187878686866040518663ffffffff1660e01b8152600401611245959493929190611f49565b6020604051808303816000875af192505050801561128157506040513d601f19601f8201168201806040525081019061127e9190611f1c565b60015b611305573d80600081146112b1576040519150601f19603f3d011682016040523d82523d6000602084013e6112b6565b606091505b5060008151036112fd57846040517f57f447ce0000000000000000000000000000000000000000000000000000000081526004016112f49190611d5e565b60405180910390fd5b805181602001fd5b63bc197c8160e01b7bffffffffffffffffffffffffffffffffffffffffffffffffffffffff1916817bffffffffffffffffffffffffffffffffffffffffffffffffffffffff19161461138e57846040517f57f447ce0000000000000000000000000000000000000000000000000000000081526004016113859190611d5e565b60405180910390fd5b505b505050505050565b6000604051905090565b600080fd5b600080fd5b600073ffffffffffffffffffffffffffffffffffffffff82169050919050565b60006113d7826113ac565b9050919050565b6113e7816113cc565b81146113f257600080fd5b50565b600081359050611404816113de565b92915050565b6000819050919050565b61141d8161140a565b811461142857600080fd5b50565b60008135905061143a81611414565b92915050565b60008060408385031215611457576114566113a2565b5b6000611465858286016113f5565b92505060206114768582860161142b565b9150509250929050565b6114898161140a565b82525050565b60006020820190506114a46000830184611480565b92915050565b60007fffffffff0000000000000000000000000000000000000000000000000000000082169050919050565b6114df816114aa565b81146114ea57600080fd5b50565b6000813590506114fc816114d6565b92915050565b600060208284031215611518576115176113a2565b5b6000611526848285016114ed565b91505092915050565b60008115159050919050565b6115448161152f565b82525050565b600060208201905061155f600083018461153b565b92915050565b60006020828403121561157b5761157a6113a2565b5b60006115898482850161142b565b91505092915050565b600081519050919050565b600082825260208201905092915050565b60005b838110156115cc5780820151818401526020810190506115b1565b60008484015250505050565b6000601f19601f8301169050919050565b60006115f482611592565b6115fe818561159d565b935061160e8185602086016115ae565b611617816115d8565b840191505092915050565b6000602082019050818103600083015261163c81846115e9565b905092915050565b600080fd5b7f4e487b7100000000000000000000000000000000000000000000000000000000600052604160045260246000fd5b611681826115d8565b810181811067ffffffffffffffff821117156116a05761169f611649565b5b80604052505050565b60006116b3611398565b90506116bf8282611678565b919050565b600067ffffffffffffffff8211156116df576116de611649565b5b602082029050602081019050919050565b600080fd5b6000611708611703846116c4565b6116a9565b9050808382526020820190506020840283018581111561172b5761172a6116f0565b5b835b818110156117545780611740888261142b565b84526020840193505060208101905061172d565b5050509392505050565b600082601f83011261177357611772611644565b5b81356117838482602086016116f5565b91505092915050565b600080fd5b600067ffffffffffffffff8211156117ac576117ab611649565b5b6117b5826115d8565b9050602081019050919050565b82818337600083830152505050565b60006117e46117df84611791565b6116a9565b905082815260208101848484011115611800576117ff61178c565b5b61180b8482856117c2565b509392505050565b600082601f83011261182857611827611644565b5b81356118388482602086016117d1565b91505092915050565b600080600080600060a0868803121561185d5761185c6113a2565b5b600061186b888289016113f5565b955050602061187c888289016113f5565b945050604086013567ffffffffffffffff81111561189d5761189c6113a7565b5b6118a98882890161175e565b935050606086013567ffffffffffffffff8111156118ca576118c96113a7565b5b6118d68882890161175e565b925050608086013567ffffffffffffffff8111156118f7576118f66113a7565b5b61190388828901611813565b9150509295509295909350565b600067ffffffffffffffff82111561192b5761192a611649565b5b602082029050602081019050919050565b600061194f61194a84611910565b6116a9565b90508083825260208201905060208402830185811115611972576119716116f0565b5b835b8181101561199b578061198788826113f5565b845260208401935050602081019050611974565b5050509392505050565b600082601f8301126119ba576119b9611644565b5b81356119ca84826020860161193c565b91505092915050565b600080604083850312156119ea576119e96113a2565b5b600083013567ffffffffffffffff811115611a0857611a076113a7565b5b611a14858286016119a5565b925050602083013567ffffffffffffffff811115611a3557611a346113a7565b5b611a418582860161175e565b9150509250929050565b600081519050919050565b600082825260208201905092915050565b6000819050602082019050919050565b611a808161140a565b82525050565b6000611a928383611a77565b60208301905092915050565b6000602082019050919050565b6000611ab682611a4b565b611ac08185611a56565b9350611acb83611a67565b8060005b83811015611afc578151611ae38882611a86565b9750611aee83611a9e565b925050600181019050611acf565b5085935050505092915050565b60006020820190508181036000830152611b238184611aab565b905092915050565b611b348161152f565b8114611b3f57600080fd5b50565b600081359050611b5181611b2b565b92915050565b60008060408385031215611b6e57611b6d6113a2565b5b6000611b7c858286016113f5565b9250506020611b8d85828601611b42565b9150509250929050565b60008060408385031215611bae57611bad6113a2565b5b6000611bbc858286016113f5565b9250506020611bcd858286016113f5565b9150509250929050565b600080600080600060a08688031215611bf357611bf26113a2565b5b6000611c01888289016113f5565b9550506020611c12888289016113f5565b9450506040611c238882890161142b565b9350506060611c348882890161142b565b925050608086013567ffffffffffffffff811115611c5557611c546113a7565b5b611c6188828901611813565b9150509295509295909350565b7f4e487b7100000000000000000000000000000000000000000000000000000000600052602260045260246000fd5b60006002820490506001821680611cb557607f821691505b602082108103611cc857611cc7611c6e565b5b50919050565b611cd7816113cc565b82525050565b6000604082019050611cf26000830185611cce565b611cff6020830184611cce565b9392505050565b6000604082019050611d1b6000830185611480565b611d286020830184611480565b9392505050565b7f4e487b7100000000000000000000000000000000000000000000000000000000600052603260045260246000fd5b6000602082019050611d736000830184611cce565b92915050565b6000608082019050611d8e6000830187611cce565b611d9b6020830186611480565b611da86040830185611480565b611db56060830184611480565b95945050505050565b7f4e487b7100000000000000000000000000000000000000000000000000000000600052601160045260246000fd5b6000611df88261140a565b9150611e038361140a565b9250828201905080821115611e1b57611e1a611dbe565b5b92915050565b60006040820190508181036000830152611e3b8185611aab565b90508181036020830152611e4f8184611aab565b90509392505050565b600081519050919050565b600082825260208201905092915050565b6000611e7f82611e58565b611e898185611e63565b9350611e998185602086016115ae565b611ea2816115d8565b840191505092915050565b600060a082019050611ec26000830188611cce565b611ecf6020830187611cce565b611edc6040830186611480565b611ee96060830185611480565b8181036080830152611efb8184611e74565b90509695505050505050565b600081519050611f16816114d6565b92915050565b600060208284031215611f3257611f316113a2565b5b6000611f4084828501611f07565b91505092915050565b600060a082019050611f5e6000830188611cce565b611f6b6020830187611cce565b8181036040830152611f7d8186611aab565b90508181036060830152611f918185611aab565b90508181036080830152611fa58184611e74565b9050969550505050505056fea2646970667358221220f30f70ed1ab10792922c78c2eab6a33ce91deef8391f3001c6a15c12ca15808e64736f6c634300081c00336c6f63616c686f73743a333030302f6170692f6974656d2f7b69647d2e6a736f6e",
  "linkReferences": {},
  "deployedLinkReferences": {}
}