{
  "_format": "hh-sol-artifact-1",
  "contractName": "OpenSourceCampaignNFT",
  "sourceName": "contracts/GitPayBit.sol",
  "abi": [
    {
      "inputs": [],
      "stateMutability": "nonpayable",
      "type": "constructor"
    },
    {
      "inputs": [
        {
          "internalType": "address",
          "name": "sender",
          "type": "address"
        },
        {
          "internalType": "uint256",
          "name": "tokenId",
          "type": "uint256"
        },
        {
          "internalType": "address",
          "name": "owner",
          "type": "address"
        }
      ],
      "name": "ERC721IncorrectOwner",
      "type": "error"
    },
    {
      "inputs": [
        {
          "internalType": "address",
          "name": "operator",
          "type": "address"
        },
        {
          "internalType": "uint256",
          "name": "tokenId",
          "type": "uint256"
        }
      ],
      "name": "ERC721InsufficientApproval",
      "type": "error"
    },
    {
      "inputs": [
        {
          "internalType": "address",
          "name": "approver",
          "type": "address"
        }
      ],
      "name": "ERC721InvalidApprover",
      "type": "error"
    },
    {
      "inputs": [
        {
          "internalType": "address",
          "name": "operator",
          "type": "address"
        }
      ],
      "name": "ERC721InvalidOperator",
      "type": "error"
    },
    {
      "inputs": [
        {
          "internalType": "address",
          "name": "owner",
          "type": "address"
        }
      ],
      "name": "ERC721InvalidOwner",
      "type": "error"
    },
    {
      "inputs": [
        {
          "internalType": "address",
          "name": "receiver",
          "type": "address"
        }
      ],
      "name": "ERC721InvalidReceiver",
      "type": "error"
    },
    {
      "inputs": [
        {
          "internalType": "address",
          "name": "sender",
          "type": "address"
        }
      ],
      "name": "ERC721InvalidSender",
      "type": "error"
    },
    {
      "inputs": [
        {
          "internalType": "uint256",
          "name": "tokenId",
          "type": "uint256"
        }
      ],
      "name": "ERC721NonexistentToken",
      "type": "error"
    },
    {
      "inputs": [
        {
          "internalType": "address",
          "name": "owner",
          "type": "address"
        }
      ],
      "name": "OwnableInvalidOwner",
      "type": "error"
    },
    {
      "inputs": [
        {
          "internalType": "address",
          "name": "account",
          "type": "address"
        }
      ],
      "name": "OwnableUnauthorizedAccount",
      "type": "error"
    },
    {
      "anonymous": false,
      "inputs": [
        {
          "indexed": true,
          "internalType": "address",
          "name": "owner",
          "type": "address"
        },
        {
          "indexed": true,
          "internalType": "address",
          "name": "approved",
          "type": "address"
        },
        {
          "indexed": true,
          "internalType": "uint256",
          "name": "tokenId",
          "type": "uint256"
        }
      ],
      "name": "Approval",
      "type": "event"
    },
    {
      "anonymous": false,
      "inputs": [
        {
          "indexed": true,
          "internalType": "address",
          "name": "owner",
          "type": "address"
        },
        {
          "indexed": true,
          "internalType": "address",
          "name": "operator",
          "type": "address"
        },
        {
          "indexed": false,
          "internalType": "bool",
          "name": "approved",
          "type": "bool"
        }
      ],
      "name": "ApprovalForAll",
      "type": "event"
    },
    {
      "anonymous": false,
      "inputs": [
        {
          "indexed": false,
          "internalType": "uint256",
          "name": "_fromTokenId",
          "type": "uint256"
        },
        {
          "indexed": false,
          "internalType": "uint256",
          "name": "_toTokenId",
          "type": "uint256"
        }
      ],
      "name": "BatchMetadataUpdate",
      "type": "event"
    },
    {
      "anonymous": false,
      "inputs": [
        {
          "indexed": true,
          "internalType": "bytes32",
          "name": "campaignId",
          "type": "bytes32"
        },
        {
          "indexed": false,
          "internalType": "string",
          "name": "githubUsername",
          "type": "string"
        },
        {
          "indexed": false,
          "internalType": "string",
          "name": "repositoryName",
          "type": "string"
        },
        {
          "indexed": false,
          "internalType": "string",
          "name": "campaignName",
          "type": "string"
        },
        {
          "indexed": false,
          "internalType": "uint256",
          "name": "prizePool",
          "type": "uint256"
        },
        {
          "indexed": true,
          "internalType": "address",
          "name": "creator",
          "type": "address"
        },
        {
          "indexed": false,
          "internalType": "address[]",
          "name": "maintainers",
          "type": "address[]"
        }
      ],
      "name": "CampaignCreated",
      "type": "event"
    },
    {
      "anonymous": false,
      "inputs": [
        {
          "indexed": true,
          "internalType": "bytes32",
          "name": "campaignId",
          "type": "bytes32"
        },
        {
          "indexed": true,
          "internalType": "address",
          "name": "contributor",
          "type": "address"
        },
        {
          "indexed": false,
          "internalType": "uint256",
          "name": "level",
          "type": "uint256"
        }
      ],
      "name": "LevelAssigned",
      "type": "event"
    },
    {
      "anonymous": false,
      "inputs": [
        {
          "indexed": false,
          "internalType": "uint256",
          "name": "_tokenId",
          "type": "uint256"
        }
      ],
      "name": "MetadataUpdate",
      "type": "event"
    },
    {
      "anonymous": false,
      "inputs": [
        {
          "indexed": true,
          "internalType": "bytes32",
          "name": "campaignId",
          "type": "bytes32"
        },
        {
          "indexed": true,
          "internalType": "address",
          "name": "contributor",
          "type": "address"
        },
        {
          "indexed": false,
          "internalType": "uint256",
          "name": "tokenId",
          "type": "uint256"
        },
        {
          "indexed": false,
          "internalType": "uint256",
          "name": "level",
          "type": "uint256"
        },
        {
          "indexed": false,
          "internalType": "string",
          "name": "metadataURI",
          "type": "string"
        }
      ],
      "name": "NFTMinted",
      "type": "event"
    },
    {
      "anonymous": false,
      "inputs": [
        {
          "indexed": true,
          "internalType": "uint256",
          "name": "tokenId",
          "type": "uint256"
        },
        {
          "indexed": true,
          "internalType": "address",
          "name": "contributor",
          "type": "address"
        },
        {
          "indexed": false,
          "internalType": "uint256",
          "name": "amount",
          "type": "uint256"
        }
      ],
      "name": "NFTPaid",
      "type": "event"
    },
    {
      "anonymous": false,
      "inputs": [
        {
          "indexed": true,
          "internalType": "address",
          "name": "previousOwner",
          "type": "address"
        },
        {
          "indexed": true,
          "internalType": "address",
          "name": "newOwner",
          "type": "address"
        }
      ],
      "name": "OwnershipTransferred",
      "type": "event"
    },
    {
      "anonymous": false,
      "inputs": [
        {
          "indexed": true,
          "internalType": "address",
          "name": "from",
          "type": "address"
        },
        {
          "indexed": true,
          "internalType": "address",
          "name": "to",
          "type": "address"
        },
        {
          "indexed": true,
          "internalType": "uint256",
          "name": "tokenId",
          "type": "uint256"
        }
      ],
      "name": "Transfer",
      "type": "event"
    },
    {
      "inputs": [
        {
          "internalType": "address",
          "name": "to",
          "type": "address"
        },
        {
          "internalType": "uint256",
          "name": "tokenId",
          "type": "uint256"
        }
      ],
      "name": "approve",
      "outputs": [],
      "stateMutability": "nonpayable",
      "type": "function"
    },
    {
      "inputs": [
        {
          "internalType": "bytes32",
          "name": "campaignId",
          "type": "bytes32"
        },
        {
          "internalType": "address",
          "name": "contributor",
          "type": "address"
        },
        {
          "internalType": "uint256",
          "name": "level",
          "type": "uint256"
        }
      ],
      "name": "assignLevel",
      "outputs": [],
      "stateMutability": "nonpayable",
      "type": "function"
    },
    {
      "inputs": [
        {
          "internalType": "address",
          "name": "owner",
          "type": "address"
        }
      ],
      "name": "balanceOf",
      "outputs": [
        {
          "internalType": "uint256",
          "name": "",
          "type": "uint256"
        }
      ],
      "stateMutability": "view",
      "type": "function"
    },
    {
      "inputs": [
        {
          "internalType": "bytes32",
          "name": "",
          "type": "bytes32"
        },
        {
          "internalType": "uint256",
          "name": "",
          "type": "uint256"
        }
      ],
      "name": "campaignLevels",
      "outputs": [
        {
          "internalType": "uint256",
          "name": "nftSupply",
          "type": "uint256"
        },
        {
          "internalType": "string",
          "name": "metadataURI",
          "type": "string"
        }
      ],
      "stateMutability": "view",
      "type": "function"
    },
    {
      "inputs": [
        {
          "internalType": "bytes32",
          "name": "",
          "type": "bytes32"
        }
      ],
      "name": "campaigns",
      "outputs": [
        {
          "internalType": "string",
          "name": "githubUsername",
          "type": "string"
        },
        {
          "internalType": "string",
          "name": "repositoryName",
          "type": "string"
        },
        {
          "internalType": "string",
          "name": "campaignName",
          "type": "string"
        },
        {
          "internalType": "uint256",
          "name": "prizePool",
          "type": "uint256"
        },
        {
          "internalType": "address",
          "name": "creator",
          "type": "address"
        },
        {
          "internalType": "bool",
          "name": "exists",
          "type": "bool"
        }
      ],
      "stateMutability": "view",
      "type": "function"
    },
    {
      "inputs": [
        {
          "internalType": "bytes32",
          "name": "",
          "type": "bytes32"
        },
        {
          "internalType": "address",
          "name": "",
          "type": "address"
        },
        {
          "internalType": "uint256",
          "name": "",
          "type": "uint256"
        }
      ],
      "name": "contributorLevels",
      "outputs": [
        {
          "internalType": "uint256",
          "name": "",
          "type": "uint256"
        }
      ],
      "stateMutability": "view",
      "type": "function"
    },
    {
      "inputs": [
        {
          "internalType": "string",
          "name": "_githubUsername",
          "type": "string"
        },
        {
          "internalType": "string",
          "name": "_repositoryName",
          "type": "string"
        },
        {
          "internalType": "string",
          "name": "_campaignName",
          "type": "string"
        },
        {
          "internalType": "uint256",
          "name": "_prizePool",
          "type": "uint256"
        },
        {
          "internalType": "address[]",
          "name": "_maintainers",
          "type": "address[]"
        },
        {
          "internalType": "uint256[]",
          "name": "_levelSupplies",
          "type": "uint256[]"
        },
        {
          "internalType": "string[]",
          "name": "_levelURIs",
          "type": "string[]"
        }
      ],
      "name": "createCampaign",
      "outputs": [],
      "stateMutability": "nonpayable",
      "type": "function"
    },
    {
      "inputs": [
        {
          "internalType": "uint256",
          "name": "tokenId",
          "type": "uint256"
        }
      ],
      "name": "getApproved",
      "outputs": [
        {
          "internalType": "address",
          "name": "",
          "type": "address"
        }
      ],
      "stateMutability": "view",
      "type": "function"
    },
    {
      "inputs": [
        {
          "internalType": "address",
          "name": "owner",
          "type": "address"
        },
        {
          "internalType": "address",
          "name": "operator",
          "type": "address"
        }
      ],
      "name": "isApprovedForAll",
      "outputs": [
        {
          "internalType": "bool",
          "name": "",
          "type": "bool"
        }
      ],
      "stateMutability": "view",
      "type": "function"
    },
    {
      "inputs": [
        {
          "internalType": "bytes32",
          "name": "campaignId",
          "type": "bytes32"
        },
        {
          "internalType": "address",
          "name": "user",
          "type": "address"
        }
      ],
      "name": "isMaintainer",
      "outputs": [
        {
          "internalType": "bool",
          "name": "",
          "type": "bool"
        }
      ],
      "stateMutability": "view",
      "type": "function"
    },
    {
      "inputs": [
        {
          "internalType": "bytes32",
          "name": "campaignId",
          "type": "bytes32"
        }
      ],
      "name": "mintNFT",
      "outputs": [],
      "stateMutability": "nonpayable",
      "type": "function"
    },
    {
      "inputs": [],
      "name": "name",
      "outputs": [
        {
          "internalType": "string",
          "name": "",
          "type": "string"
        }
      ],
      "stateMutability": "view",
      "type": "function"
    },
    {
      "inputs": [
        {
          "internalType": "uint256",
          "name": "",
          "type": "uint256"
        }
      ],
      "name": "nftPayments",
      "outputs": [
        {
          "internalType": "bool",
          "name": "paid",
          "type": "bool"
        },
        {
          "internalType": "uint256",
          "name": "amount",
          "type": "uint256"
        }
      ],
      "stateMutability": "view",
      "type": "function"
    },
    {
      "inputs": [],
      "name": "owner",
      "outputs": [
        {
          "internalType": "address",
          "name": "",
          "type": "address"
        }
      ],
      "stateMutability": "view",
      "type": "function"
    },
    {
      "inputs": [
        {
          "internalType": "uint256",
          "name": "tokenId",
          "type": "uint256"
        }
      ],
      "name": "ownerOf",
      "outputs": [
        {
          "internalType": "address",
          "name": "",
          "type": "address"
        }
      ],
      "stateMutability": "view",
      "type": "function"
    },
    {
      "inputs": [
        {
          "internalType": "uint256",
          "name": "tokenId",
          "type": "uint256"
        }
      ],
      "name": "payNFT",
      "outputs": [],
      "stateMutability": "payable",
      "type": "function"
    },
    {
      "inputs": [],
      "name": "renounceOwnership",
      "outputs": [],
      "stateMutability": "nonpayable",
      "type": "function"
    },
    {
      "inputs": [
        {
          "internalType": "address",
          "name": "from",
          "type": "address"
        },
        {
          "internalType": "address",
          "name": "to",
          "type": "address"
        },
        {
          "internalType": "uint256",
          "name": "tokenId",
          "type": "uint256"
        }
      ],
      "name": "safeTransferFrom",
      "outputs": [],
      "stateMutability": "nonpayable",
      "type": "function"
    },
    {
      "inputs": [
        {
          "internalType": "address",
          "name": "from",
          "type": "address"
        },
        {
          "internalType": "address",
          "name": "to",
          "type": "address"
        },
        {
          "internalType": "uint256",
          "name": "tokenId",
          "type": "uint256"
        },
        {
          "internalType": "bytes",
          "name": "data",
          "type": "bytes"
        }
      ],
      "name": "safeTransferFrom",
      "outputs": [],
      "stateMutability": "nonpayable",
      "type": "function"
    },
    {
      "inputs": [
        {
          "internalType": "address",
          "name": "operator",
          "type": "address"
        },
        {
          "internalType": "bool",
          "name": "approved",
          "type": "bool"
        }
      ],
      "name": "setApprovalForAll",
      "outputs": [],
      "stateMutability": "nonpayable",
      "type": "function"
    },
    {
      "inputs": [
        {
          "internalType": "bytes4",
          "name": "interfaceId",
          "type": "bytes4"
        }
      ],
      "name": "supportsInterface",
      "outputs": [
        {
          "internalType": "bool",
          "name": "",
          "type": "bool"
        }
      ],
      "stateMutability": "view",
      "type": "function"
    },
    {
      "inputs": [],
      "name": "symbol",
      "outputs": [
        {
          "internalType": "string",
          "name": "",
          "type": "string"
        }
      ],
      "stateMutability": "view",
      "type": "function"
    },
    {
      "inputs": [
        {
          "internalType": "uint256",
          "name": "tokenId",
          "type": "uint256"
        }
      ],
      "name": "tokenURI",
      "outputs": [
        {
          "internalType": "string",
          "name": "",
          "type": "string"
        }
      ],
      "stateMutability": "view",
      "type": "function"
    },
    {
      "inputs": [
        {
          "internalType": "address",
          "name": "from",
          "type": "address"
        },
        {
          "internalType": "address",
          "name": "to",
          "type": "address"
        },
        {
          "internalType": "uint256",
          "name": "tokenId",
          "type": "uint256"
        }
      ],
      "name": "transferFrom",
      "outputs": [],
      "stateMutability": "nonpayable",
      "type": "function"
    },
    {
      "inputs": [
        {
          "internalType": "address",
          "name": "newOwner",
          "type": "address"
        }
      ],
      "name": "transferOwnership",
      "outputs": [],
      "stateMutability": "nonpayable",
      "type": "function"
    },
    {
      "inputs": [
        {
          "internalType": "bytes32",
          "name": "campaignId",
          "type": "bytes32"
        },
        {
          "internalType": "address",
          "name": "contributor",
          "type": "address"
        },
        {
          "internalType": "uint256",
          "name": "level",
          "type": "uint256"
        }
      ],
      "name": "verifyNFT",
      "outputs": [
        {
          "internalType": "bool",
          "name": "",
          "type": "bool"
        }
      ],
      "stateMutability": "view",
      "type": "function"
    }
  ],
  "bytecode": "0x608060405234801561001057600080fd5b50336040518060400160405280601981526020017f4f70656e536f75726365436f6e747269627574696f6e4e4654000000000000008152506040518060400160405280600681526020017f4f53434e46540000000000000000000000000000000000000000000000000000815250816000908161008d919061043d565b50806001908161009d919061043d565b505050600073ffffffffffffffffffffffffffffffffffffffff168173ffffffffffffffffffffffffffffffffffffffff16036101125760006040517f1e4fbdf70000000000000000000000000000000000000000000000000000000081526004016101099190610550565b60405180910390fd5b6101218161012760201b60201c565b5061056b565b6000600760009054906101000a900473ffffffffffffffffffffffffffffffffffffffff16905081600760006101000a81548173ffffffffffffffffffffffffffffffffffffffff021916908373ffffffffffffffffffffffffffffffffffffffff1602179055508173ffffffffffffffffffffffffffffffffffffffff168173ffffffffffffffffffffffffffffffffffffffff167f8be0079c531659141344cd1fd0a4f28419497f9722a3daafe3b4186f6b6457e060405160405180910390a35050565b600081519050919050565b7f4e487b7100000000000000000000000000000000000000000000000000000000600052604160045260246000fd5b7f4e487b7100000000000000000000000000000000000000000000000000000000600052602260045260246000fd5b6000600282049050600182168061026e57607f821691505b60208210810361028157610280610227565b5b50919050565b60008190508160005260206000209050919050565b60006020601f8301049050919050565b600082821b905092915050565b6000600883026102e97fffffffffffffffffffffffffffffffffffffffffffffffffffffffffffffffff826102ac565b6102f386836102ac565b95508019841693508086168417925050509392505050565b6000819050919050565b6000819050919050565b600061033a6103356103308461030b565b610315565b61030b565b9050919050565b6000819050919050565b6103548361031f565b61036861036082610341565b8484546102b9565b825550505050565b600090565b61037d610370565b61038881848461034b565b505050565b5b818110156103ac576103a1600082610375565b60018101905061038e565b5050565b601f8211156103f1576103c281610287565b6103cb8461029c565b810160208510156103da578190505b6103ee6103e68561029c565b83018261038d565b50505b505050565b600082821c905092915050565b6000610414600019846008026103f6565b1980831691505092915050565b600061042d8383610403565b9150826002028217905092915050565b610446826101ed565b67ffffffffffffffff81111561045f5761045e6101f8565b5b6104698254610256565b6104748282856103b0565b600060209050601f8311600181146104a75760008415610495578287015190505b61049f8582610421565b865550610507565b601f1984166104b586610287565b60005b828110156104dd578489015182556001820191506020850194506020810190506104b8565b868310156104fa57848901516104f6601f891682610403565b8355505b6001600288020188555050505b505050505050565b600073ffffffffffffffffffffffffffffffffffffffff82169050919050565b600061053a8261050f565b9050919050565b61054a8161052f565b82525050565b60006020820190506105656000830184610541565b92915050565b6147908061057a6000396000f3fe6080604052600436106101815760003560e01c806370a08231116100d1578063a22cb4651161008a578063c87b56dd11610064578063c87b56dd146105ad578063cd39d2d6146105ea578063e985e9c514610628578063f2fde38b1461066557610181565b8063a22cb4651461051e578063af9f441c14610547578063b88d4fde1461058457610181565b806370a0823114610409578063715018a61461044657806374e9a6051461045d5780638da5cb5b1461048657806395d89b41146104b15780639eca2f1e146104dc57610181565b8063138076421161013e5780633e47d4c3116101185780633e47d4c31461035e57806342842e0e146103875780636352211e146103b057806364b76320146103ed57610181565b806313807642146102cf57806323b872dd146102f8578063270dc48c1461032157610181565b806301656e3b1461018657806301ffc9a7146101c457806306fdde0314610201578063081812fc1461022c578063095ea7b3146102695780630daf5c7114610292575b600080fd5b34801561019257600080fd5b506101ad60048036038101906101a89190612f0b565b61068e565b6040516101bb929190612fea565b60405180910390f35b3480156101d057600080fd5b506101eb60048036038101906101e69190613072565b610747565b6040516101f891906130ba565b60405180910390f35b34801561020d57600080fd5b506102166107a8565b60405161022391906130d5565b60405180910390f35b34801561023857600080fd5b50610253600480360381019061024e91906130f7565b61083a565b6040516102609190613165565b60405180910390f35b34801561027557600080fd5b50610290600480360381019061028b91906131ac565b610856565b005b34801561029e57600080fd5b506102b960048036038101906102b491906131ec565b61086c565b6040516102c691906130ba565b60405180910390f35b3480156102db57600080fd5b506102f660048036038101906102f1919061322c565b6109fd565b005b34801561030457600080fd5b5061031f600480360381019061031a9190613259565b610d3d565b005b34801561032d57600080fd5b50610348600480360381019061034391906132ac565b610e3f565b60405161035591906132ff565b60405180910390f35b34801561036a57600080fd5b50610385600480360381019061038091906132ac565b610e7d565b005b34801561039357600080fd5b506103ae60048036038101906103a99190613259565b611108565b005b3480156103bc57600080fd5b506103d760048036038101906103d291906130f7565b611128565b6040516103e49190613165565b60405180910390f35b610407600480360381019061040291906130f7565b61113a565b005b34801561041557600080fd5b50610430600480360381019061042b919061331a565b611357565b60405161043d91906132ff565b60405180910390f35b34801561045257600080fd5b5061045b611411565b005b34801561046957600080fd5b50610484600480360381019061047f91906136e8565b611425565b005b34801561049257600080fd5b5061049b611747565b6040516104a89190613165565b60405180910390f35b3480156104bd57600080fd5b506104c6611771565b6040516104d391906130d5565b60405180910390f35b3480156104e857600080fd5b5061050360048036038101906104fe919061322c565b611803565b60405161051596959493929190613832565b60405180910390f35b34801561052a57600080fd5b50610545600480360381019061054091906138d4565b611a04565b005b34801561055357600080fd5b5061056e600480360381019061056991906132ac565b611a1a565b60405161057b91906130ba565b60405180910390f35b34801561059057600080fd5b506105ab60048036038101906105a691906139b5565b611b11565b005b3480156105b957600080fd5b506105d460048036038101906105cf91906130f7565b611b36565b6040516105e191906130d5565b60405180910390f35b3480156105f657600080fd5b50610611600480360381019061060c91906130f7565b611c49565b60405161061f929190613a38565b60405180910390f35b34801561063457600080fd5b5061064f600480360381019061064a9190613a61565b611c7a565b60405161065c91906130ba565b60405180910390f35b34801561067157600080fd5b5061068c6004803603810190610687919061331a565b611d0e565b005b600a602052816000526040600020602052806000526040600020600091509150508060000154908060010180546106c490613ad0565b80601f01602080910402602001604051908101604052809291908181526020018280546106f090613ad0565b801561073d5780601f106107125761010080835404028352916020019161073d565b820191906000526020600020905b81548152906001019060200180831161072057829003601f168201915b5050505050905082565b6000634906490660e01b7bffffffffffffffffffffffffffffffffffffffffffffffffffffffff1916827bffffffffffffffffffffffffffffffffffffffffffffffffffffffff191614806107a157506107a082611d94565b5b9050919050565b6060600080546107b790613ad0565b80601f01602080910402602001604051908101604052809291908181526020018280546107e390613ad0565b80156108305780601f1061080557610100808354040283529160200191610830565b820191906000526020600020905b81548152906001019060200180831161081357829003601f168201915b5050505050905090565b600061084582611e76565b5061084f82611efe565b9050919050565b6108688282610863611f3b565b611f43565b5050565b60008173ffffffffffffffffffffffffffffffffffffffff166009600085815260200190815260200160002060040160009054906101000a900473ffffffffffffffffffffffffffffffffffffffff1673ffffffffffffffffffffffffffffffffffffffff16036108e057600190506109f7565b60006009600085815260200190815260200160002060050180548060200260200160405190810160405280929190818152602001828054801561097857602002820191906000526020600020905b8160009054906101000a900473ffffffffffffffffffffffffffffffffffffffff1673ffffffffffffffffffffffffffffffffffffffff168152602001906001019080831161092e575b5050505050905060005b81518110156109f0578373ffffffffffffffffffffffffffffffffffffffff168282815181106109b5576109b4613b01565b5b602002602001015173ffffffffffffffffffffffffffffffffffffffff16036109e3576001925050506109f7565b8080600101915050610982565b5060009150505b92915050565b6009600082815260200190815260200160002060060160009054906101000a900460ff16610a60576040517f08c379a0000000000000000000000000000000000000000000000000000000008152600401610a5790613b7c565b60405180910390fd5b6000600b600083815260200190815260200160002060003373ffffffffffffffffffffffffffffffffffffffff1673ffffffffffffffffffffffffffffffffffffffff16815260200190815260200160002090506000818054905011610afb576040517f08c379a0000000000000000000000000000000000000000000000000000000008152600401610af290613be8565b60405180910390fd5b60005b8180549050811015610cdc576000828281548110610b1f57610b1e613b01565b5b906000526020600020015490506000600a6000868152602001908152602001600020600083815260200190815260200160002090506000816000015411610b9b576040517f08c379a0000000000000000000000000000000000000000000000000000000008152600401610b9290613c54565b60405180910390fd5b6001816000016000828254610bb09190613ca3565b92505081905550600160086000828254610bca9190613cd7565b92505081905550610bdd33600854611f55565b610c75600854826001018054610bf290613ad0565b80601f0160208091040260200160405190810160405280929190818152602001828054610c1e90613ad0565b8015610c6b5780601f10610c4057610100808354040283529160200191610c6b565b820191906000526020600020905b815481529060010190602001808311610c4e57829003601f168201915b505050505061204e565b3373ffffffffffffffffffffffffffffffffffffffff16857f777c2f289df77e728c753b9ed9cff43cea3f9a36b3162555f331e527ff9a865f6008548585600101604051610cc593929190613da4565b60405180910390a350508080600101915050610afe565b50600b600083815260200190815260200160002060003373ffffffffffffffffffffffffffffffffffffffff1673ffffffffffffffffffffffffffffffffffffffff1681526020019081526020016000206000610d399190612dc3565b5050565b600073ffffffffffffffffffffffffffffffffffffffff168273ffffffffffffffffffffffffffffffffffffffff1603610daf5760006040517f64a0ae92000000000000000000000000000000000000000000000000000000008152600401610da69190613165565b60405180910390fd5b6000610dc38383610dbe611f3b565b6120aa565b90508373ffffffffffffffffffffffffffffffffffffffff168173ffffffffffffffffffffffffffffffffffffffff1614610e39578382826040517f64283d7b000000000000000000000000000000000000000000000000000000008152600401610e3093929190613de2565b60405180910390fd5b50505050565b600b6020528260005260406000206020528160005260406000208181548110610e6757600080fd5b9060005260206000200160009250925050505481565b6009600084815260200190815260200160002060060160009054906101000a900460ff16610ee0576040517f08c379a0000000000000000000000000000000000000000000000000000000008152600401610ed790613b7c565b60405180910390fd5b610eea833361086c565b610f29576040517f08c379a0000000000000000000000000000000000000000000000000000000008152600401610f2090613e65565b60405180910390fd5b60008111610f6c576040517f08c379a0000000000000000000000000000000000000000000000000000000008152600401610f6390613ed1565b60405180910390fd5b6000600b600085815260200190815260200160002060008473ffffffffffffffffffffffffffffffffffffffff1673ffffffffffffffffffffffffffffffffffffffff168152602001908152602001600020905060005b818054905081101561103b5782828281548110610fe357610fe2613b01565b5b90600052602060002001540361102e576040517f08c379a000000000000000000000000000000000000000000000000000000000815260040161102590613f63565b60405180910390fd5b8080600101915050610fc3565b50600b600085815260200190815260200160002060008473ffffffffffffffffffffffffffffffffffffffff1673ffffffffffffffffffffffffffffffffffffffff1681526020019081526020016000208290806001815401808255809150506001900390600052602060002001600090919091909150558273ffffffffffffffffffffffffffffffffffffffff16847f449183533db69ac01b56e95465811400523c5c9c4a2a9801c7e7201e8961baed846040516110fa91906132ff565b60405180910390a350505050565b61112383838360405180602001604052806000815250611b11565b505050565b600061113382611e76565b9050919050565b600073ffffffffffffffffffffffffffffffffffffffff1661115b82611128565b73ffffffffffffffffffffffffffffffffffffffff16036111b1576040517f08c379a00000000000000000000000000000000000000000000000000000000081526004016111a890613fcf565b60405180910390fd5b600c600082815260200190815260200160002060000160009054906101000a900460ff1615611215576040517f08c379a000000000000000000000000000000000000000000000000000000000815260040161120c9061403b565b60405180910390fd5b60003411611258576040517f08c379a000000000000000000000000000000000000000000000000000000000815260040161124f906140a7565b60405180910390fd5b600061126382611128565b9050604051806040016040528060011515815260200134815250600c600084815260200190815260200160002060008201518160000160006101000a81548160ff021916908315150217905550602082015181600101559050508073ffffffffffffffffffffffffffffffffffffffff166108fc349081150290604051600060405180830381858888f19350505050158015611303573d6000803e3d6000fd5b508073ffffffffffffffffffffffffffffffffffffffff16827f736d74f5885dfbf0c63425f6e46b185e57525490ee22cd8d173c73079e6b16f43460405161134b91906132ff565b60405180910390a35050565b60008073ffffffffffffffffffffffffffffffffffffffff168273ffffffffffffffffffffffffffffffffffffffff16036113ca5760006040517f89c62b640000000000000000000000000000000000000000000000000000000081526004016113c19190613165565b60405180910390fd5b600360008373ffffffffffffffffffffffffffffffffffffffff1673ffffffffffffffffffffffffffffffffffffffff168152602001908152602001600020549050919050565b6114196122c4565b611423600061234b565b565b8051825114611469576040517f08c379a000000000000000000000000000000000000000000000000000000000815260040161146090614113565b60405180910390fd5b60008787873360405160200161148294939291906141b7565b6040516020818303038152906040528051906020012090506009600082815260200190815260200160002060060160009054906101000a900460ff16156114fe576040517f08c379a00000000000000000000000000000000000000000000000000000000081526004016114f590614245565b60405180910390fd5b6040518060e001604052808981526020018881526020018781526020018681526020013373ffffffffffffffffffffffffffffffffffffffff1681526020018581526020016001151581525060096000838152602001908152602001600020600082015181600001908161157291906143fc565b50602082015181600101908161158891906143fc565b50604082015181600201908161159e91906143fc565b506060820151816003015560808201518160040160006101000a81548173ffffffffffffffffffffffffffffffffffffffff021916908373ffffffffffffffffffffffffffffffffffffffff16021790555060a082015181600501908051906020019061160c929190612de4565b5060c08201518160060160006101000a81548160ff02191690831515021790555090505060005b83518110156116e557604051806040016040528085838151811061165a57611659613b01565b5b6020026020010151815260200184838151811061167a57611679613b01565b5b6020026020010151815250600a600084815260200190815260200160002060006001846116a79190613cd7565b81526020019081526020016000206000820151816000015560208201518160010190816116d491906143fc565b509050508080600101915050611633565b503373ffffffffffffffffffffffffffffffffffffffff16817fc90ff614b72a9e16a293ecec80fd4f5c827a5d7f2625dee1c7a6a3cdbcbcc96c8a8a8a8a8a60405161173595949392919061458c565b60405180910390a35050505050505050565b6000600760009054906101000a900473ffffffffffffffffffffffffffffffffffffffff16905090565b60606001805461178090613ad0565b80601f01602080910402602001604051908101604052809291908181526020018280546117ac90613ad0565b80156117f95780601f106117ce576101008083540402835291602001916117f9565b820191906000526020600020905b8154815290600101906020018083116117dc57829003601f168201915b5050505050905090565b600960205280600052604060002060009150905080600001805461182690613ad0565b80601f016020809104026020016040519081016040528092919081815260200182805461185290613ad0565b801561189f5780601f106118745761010080835404028352916020019161189f565b820191906000526020600020905b81548152906001019060200180831161188257829003601f168201915b5050505050908060010180546118b490613ad0565b80601f01602080910402602001604051908101604052809291908181526020018280546118e090613ad0565b801561192d5780601f106119025761010080835404028352916020019161192d565b820191906000526020600020905b81548152906001019060200180831161191057829003601f168201915b50505050509080600201805461194290613ad0565b80601f016020809104026020016040519081016040528092919081815260200182805461196e90613ad0565b80156119bb5780601f10611990576101008083540402835291602001916119bb565b820191906000526020600020905b81548152906001019060200180831161199e57829003601f168201915b5050505050908060030154908060040160009054906101000a900473ffffffffffffffffffffffffffffffffffffffff16908060060160009054906101000a900460ff16905086565b611a16611a0f611f3b565b8383612411565b5050565b600080600b600086815260200190815260200160002060008573ffffffffffffffffffffffffffffffffffffffff1673ffffffffffffffffffffffffffffffffffffffff168152602001908152602001600020805480602002602001604051908101604052809291908181526020018280548015611ab757602002820191906000526020600020905b815481526020019060010190808311611aa3575b5050505050905060005b8151811015611b035783828281518110611ade57611add613b01565b5b602002602001015103611af657600192505050611b0a565b8080600101915050611ac1565b5060009150505b9392505050565b611b1c848484610d3d565b611b30611b27611f3b565b85858585612580565b50505050565b6060611b4182611e76565b506000600660008481526020019081526020016000208054611b6290613ad0565b80601f0160208091040260200160405190810160405280929190818152602001828054611b8e90613ad0565b8015611bdb5780601f10611bb057610100808354040283529160200191611bdb565b820191906000526020600020905b815481529060010190602001808311611bbe57829003601f168201915b505050505090506000611bec612731565b90506000815103611c01578192505050611c44565b600082511115611c36578082604051602001611c1e9291906145fb565b60405160208183030381529060405292505050611c44565b611c3f84612748565b925050505b919050565b600c6020528060005260406000206000915090508060000160009054906101000a900460ff16908060010154905082565b6000600560008473ffffffffffffffffffffffffffffffffffffffff1673ffffffffffffffffffffffffffffffffffffffff16815260200190815260200160002060008373ffffffffffffffffffffffffffffffffffffffff1673ffffffffffffffffffffffffffffffffffffffff16815260200190815260200160002060009054906101000a900460ff16905092915050565b611d166122c4565b600073ffffffffffffffffffffffffffffffffffffffff168173ffffffffffffffffffffffffffffffffffffffff1603611d885760006040517f1e4fbdf7000000000000000000000000000000000000000000000000000000008152600401611d7f9190613165565b60405180910390fd5b611d918161234b565b50565b60007f80ac58cd000000000000000000000000000000000000000000000000000000007bffffffffffffffffffffffffffffffffffffffffffffffffffffffff1916827bffffffffffffffffffffffffffffffffffffffffffffffffffffffff19161480611e5f57507f5b5e139f000000000000000000000000000000000000000000000000000000007bffffffffffffffffffffffffffffffffffffffffffffffffffffffff1916827bffffffffffffffffffffffffffffffffffffffffffffffffffffffff1916145b80611e6f5750611e6e826127b1565b5b9050919050565b600080611e828361281b565b9050600073ffffffffffffffffffffffffffffffffffffffff168173ffffffffffffffffffffffffffffffffffffffff1603611ef557826040517f7e273289000000000000000000000000000000000000000000000000000000008152600401611eec91906132ff565b60405180910390fd5b80915050919050565b60006004600083815260200190815260200160002060009054906101000a900473ffffffffffffffffffffffffffffffffffffffff169050919050565b600033905090565b611f508383836001612858565b505050565b600073ffffffffffffffffffffffffffffffffffffffff168273ffffffffffffffffffffffffffffffffffffffff1603611fc75760006040517f64a0ae92000000000000000000000000000000000000000000000000000000008152600401611fbe9190613165565b60405180910390fd5b6000611fd5838360006120aa565b9050600073ffffffffffffffffffffffffffffffffffffffff168173ffffffffffffffffffffffffffffffffffffffff16146120495760006040517f73c6ac6e0000000000000000000000000000000000000000000000000000000081526004016120409190613165565b60405180910390fd5b505050565b8060066000848152602001908152602001600020908161206e91906143fc565b507ff8e1a15aba9398e019f0b49df1a4fde98ee17ae345cb5f6b5e2c27f5033e8ce78260405161209e91906132ff565b60405180910390a15050565b6000806120b68461281b565b9050600073ffffffffffffffffffffffffffffffffffffffff168373ffffffffffffffffffffffffffffffffffffffff16146120f8576120f7818486612a1d565b5b600073ffffffffffffffffffffffffffffffffffffffff168173ffffffffffffffffffffffffffffffffffffffff16146121895761213a600085600080612858565b6001600360008373ffffffffffffffffffffffffffffffffffffffff1673ffffffffffffffffffffffffffffffffffffffff168152602001908152602001600020600082825403925050819055505b600073ffffffffffffffffffffffffffffffffffffffff168573ffffffffffffffffffffffffffffffffffffffff161461220c576001600360008773ffffffffffffffffffffffffffffffffffffffff1673ffffffffffffffffffffffffffffffffffffffff168152602001908152602001600020600082825401925050819055505b846002600086815260200190815260200160002060006101000a81548173ffffffffffffffffffffffffffffffffffffffff021916908373ffffffffffffffffffffffffffffffffffffffff160217905550838573ffffffffffffffffffffffffffffffffffffffff168273ffffffffffffffffffffffffffffffffffffffff167fddf252ad1be2c89b69c2b068fc378daa952ba7f163c4a11628f55a4df523b3ef60405160405180910390a4809150509392505050565b6122cc611f3b565b73ffffffffffffffffffffffffffffffffffffffff166122ea611747565b73ffffffffffffffffffffffffffffffffffffffff16146123495761230d611f3b565b6040517f118cdaa70000000000000000000000000000000000000000000000000000000081526004016123409190613165565b60405180910390fd5b565b6000600760009054906101000a900473ffffffffffffffffffffffffffffffffffffffff16905081600760006101000a81548173ffffffffffffffffffffffffffffffffffffffff021916908373ffffffffffffffffffffffffffffffffffffffff1602179055508173ffffffffffffffffffffffffffffffffffffffff168173ffffffffffffffffffffffffffffffffffffffff167f8be0079c531659141344cd1fd0a4f28419497f9722a3daafe3b4186f6b6457e060405160405180910390a35050565b600073ffffffffffffffffffffffffffffffffffffffff168273ffffffffffffffffffffffffffffffffffffffff160361248257816040517f5b08ba180000000000000000000000000000000000000000000000000000000081526004016124799190613165565b60405180910390fd5b80600560008573ffffffffffffffffffffffffffffffffffffffff1673ffffffffffffffffffffffffffffffffffffffff16815260200190815260200160002060008473ffffffffffffffffffffffffffffffffffffffff1673ffffffffffffffffffffffffffffffffffffffff16815260200190815260200160002060006101000a81548160ff0219169083151502179055508173ffffffffffffffffffffffffffffffffffffffff168373ffffffffffffffffffffffffffffffffffffffff167f17307eab39ab6107e8899845ad3d59bd9653f200f220920489ca2b5937696c318360405161257391906130ba565b60405180910390a3505050565b60008373ffffffffffffffffffffffffffffffffffffffff163b111561272a578273ffffffffffffffffffffffffffffffffffffffff1663150b7a02868685856040518563ffffffff1660e01b81526004016125df9493929190614674565b6020604051808303816000875af192505050801561261b57506040513d601f19601f8201168201806040525081019061261891906146d5565b60015b61269f573d806000811461264b576040519150601f19603f3d011682016040523d82523d6000602084013e612650565b606091505b50600081510361269757836040517f64a0ae9200000000000000000000000000000000000000000000000000000000815260040161268e9190613165565b60405180910390fd5b805181602001fd5b63150b7a0260e01b7bffffffffffffffffffffffffffffffffffffffffffffffffffffffff1916817bffffffffffffffffffffffffffffffffffffffffffffffffffffffff19161461272857836040517f64a0ae9200000000000000000000000000000000000000000000000000000000815260040161271f9190613165565b60405180910390fd5b505b5050505050565b606060405180602001604052806000815250905090565b606061275382611e76565b50600061275e612731565b9050600081511161277e57604051806020016040528060008152506127a9565b8061278884612ae1565b6040516020016127999291906145fb565b6040516020818303038152906040525b915050919050565b60007f01ffc9a7000000000000000000000000000000000000000000000000000000007bffffffffffffffffffffffffffffffffffffffffffffffffffffffff1916827bffffffffffffffffffffffffffffffffffffffffffffffffffffffff1916149050919050565b60006002600083815260200190815260200160002060009054906101000a900473ffffffffffffffffffffffffffffffffffffffff169050919050565b80806128915750600073ffffffffffffffffffffffffffffffffffffffff168273ffffffffffffffffffffffffffffffffffffffff1614155b156129c55760006128a184611e76565b9050600073ffffffffffffffffffffffffffffffffffffffff168373ffffffffffffffffffffffffffffffffffffffff161415801561290c57508273ffffffffffffffffffffffffffffffffffffffff168173ffffffffffffffffffffffffffffffffffffffff1614155b801561291f575061291d8184611c7a565b155b1561296157826040517fa9fbf51f0000000000000000000000000000000000000000000000000000000081526004016129589190613165565b60405180910390fd5b81156129c357838573ffffffffffffffffffffffffffffffffffffffff168273ffffffffffffffffffffffffffffffffffffffff167f8c5be1e5ebec7d5bd14f71427d1e84f3dd0314c0f7b2291e5b200ac8c7c3b92560405160405180910390a45b505b836004600085815260200190815260200160002060006101000a81548173ffffffffffffffffffffffffffffffffffffffff021916908373ffffffffffffffffffffffffffffffffffffffff16021790555050505050565b612a28838383612baf565b612adc57600073ffffffffffffffffffffffffffffffffffffffff168373ffffffffffffffffffffffffffffffffffffffff1603612a9d57806040517f7e273289000000000000000000000000000000000000000000000000000000008152600401612a9491906132ff565b60405180910390fd5b81816040517f177e802f000000000000000000000000000000000000000000000000000000008152600401612ad3929190614702565b60405180910390fd5b505050565b606060006001612af084612c70565b01905060008167ffffffffffffffff811115612b0f57612b0e613351565b5b6040519080825280601f01601f191660200182016040528015612b415781602001600182028036833780820191505090505b509050600082602001820190505b600115612ba4578080600190039150507f3031323334353637383961626364656600000000000000000000000000000000600a86061a8153600a8581612b9857612b9761472b565b5b04945060008503612b4f575b819350505050919050565b60008073ffffffffffffffffffffffffffffffffffffffff168373ffffffffffffffffffffffffffffffffffffffff1614158015612c6757508273ffffffffffffffffffffffffffffffffffffffff168473ffffffffffffffffffffffffffffffffffffffff161480612c285750612c278484611c7a565b5b80612c6657508273ffffffffffffffffffffffffffffffffffffffff16612c4e83611efe565b73ffffffffffffffffffffffffffffffffffffffff16145b5b90509392505050565b600080600090507a184f03e93ff9f4daa797ed6e38ed64bf6a1f0100000000000000008310612cce577a184f03e93ff9f4daa797ed6e38ed64bf6a1f0100000000000000008381612cc457612cc361472b565b5b0492506040810190505b6d04ee2d6d415b85acef81000000008310612d0b576d04ee2d6d415b85acef81000000008381612d0157612d0061472b565b5b0492506020810190505b662386f26fc100008310612d3a57662386f26fc100008381612d3057612d2f61472b565b5b0492506010810190505b6305f5e1008310612d63576305f5e1008381612d5957612d5861472b565b5b0492506008810190505b6127108310612d88576127108381612d7e57612d7d61472b565b5b0492506004810190505b60648310612dab5760648381612da157612da061472b565b5b0492506002810190505b600a8310612dba576001810190505b80915050919050565b5080546000825590600052602060002090810190612de19190612e6e565b50565b828054828255906000526020600020908101928215612e5d579160200282015b82811115612e5c5782518260006101000a81548173ffffffffffffffffffffffffffffffffffffffff021916908373ffffffffffffffffffffffffffffffffffffffff16021790555091602001919060010190612e04565b5b509050612e6a9190612e6e565b5090565b5b80821115612e87576000816000905550600101612e6f565b5090565b6000604051905090565b600080fd5b600080fd5b6000819050919050565b612eb281612e9f565b8114612ebd57600080fd5b50565b600081359050612ecf81612ea9565b92915050565b6000819050919050565b612ee881612ed5565b8114612ef357600080fd5b50565b600081359050612f0581612edf565b92915050565b60008060408385031215612f2257612f21612e95565b5b6000612f3085828601612ec0565b9250506020612f4185828601612ef6565b9150509250929050565b612f5481612ed5565b82525050565b600081519050919050565b600082825260208201905092915050565b60005b83811015612f94578082015181840152602081019050612f79565b60008484015250505050565b6000601f19601f8301169050919050565b6000612fbc82612f5a565b612fc68185612f65565b9350612fd6818560208601612f76565b612fdf81612fa0565b840191505092915050565b6000604082019050612fff6000830185612f4b565b81810360208301526130118184612fb1565b90509392505050565b60007fffffffff0000000000000000000000000000000000000000000000000000000082169050919050565b61304f8161301a565b811461305a57600080fd5b50565b60008135905061306c81613046565b92915050565b60006020828403121561308857613087612e95565b5b60006130968482850161305d565b91505092915050565b60008115159050919050565b6130b48161309f565b82525050565b60006020820190506130cf60008301846130ab565b92915050565b600060208201905081810360008301526130ef8184612fb1565b905092915050565b60006020828403121561310d5761310c612e95565b5b600061311b84828501612ef6565b91505092915050565b600073ffffffffffffffffffffffffffffffffffffffff82169050919050565b600061314f82613124565b9050919050565b61315f81613144565b82525050565b600060208201905061317a6000830184613156565b92915050565b61318981613144565b811461319457600080fd5b50565b6000813590506131a681613180565b92915050565b600080604083850312156131c3576131c2612e95565b5b60006131d185828601613197565b92505060206131e285828601612ef6565b9150509250929050565b6000806040838503121561320357613202612e95565b5b600061321185828601612ec0565b925050602061322285828601613197565b9150509250929050565b60006020828403121561324257613241612e95565b5b600061325084828501612ec0565b91505092915050565b60008060006060848603121561327257613271612e95565b5b600061328086828701613197565b935050602061329186828701613197565b92505060406132a286828701612ef6565b9150509250925092565b6000806000606084860312156132c5576132c4612e95565b5b60006132d386828701612ec0565b93505060206132e486828701613197565b92505060406132f586828701612ef6565b9150509250925092565b60006020820190506133146000830184612f4b565b92915050565b6000602082840312156133305761332f612e95565b5b600061333e84828501613197565b91505092915050565b600080fd5b600080fd5b7f4e487b7100000000000000000000000000000000000000000000000000000000600052604160045260246000fd5b61338982612fa0565b810181811067ffffffffffffffff821117156133a8576133a7613351565b5b80604052505050565b60006133bb612e8b565b90506133c78282613380565b919050565b600067ffffffffffffffff8211156133e7576133e6613351565b5b6133f082612fa0565b9050602081019050919050565b82818337600083830152505050565b600061341f61341a846133cc565b6133b1565b90508281526020810184848401111561343b5761343a61334c565b5b6134468482856133fd565b509392505050565b600082601f83011261346357613462613347565b5b813561347384826020860161340c565b91505092915050565b600067ffffffffffffffff82111561349757613496613351565b5b602082029050602081019050919050565b600080fd5b60006134c06134bb8461347c565b6133b1565b905080838252602082019050602084028301858111156134e3576134e26134a8565b5b835b8181101561350c57806134f88882613197565b8452602084019350506020810190506134e5565b5050509392505050565b600082601f83011261352b5761352a613347565b5b813561353b8482602086016134ad565b91505092915050565b600067ffffffffffffffff82111561355f5761355e613351565b5b602082029050602081019050919050565b600061358361357e84613544565b6133b1565b905080838252602082019050602084028301858111156135a6576135a56134a8565b5b835b818110156135cf57806135bb8882612ef6565b8452602084019350506020810190506135a8565b5050509392505050565b600082601f8301126135ee576135ed613347565b5b81356135fe848260208601613570565b91505092915050565b600067ffffffffffffffff82111561362257613621613351565b5b602082029050602081019050919050565b600061364661364184613607565b6133b1565b90508083825260208201905060208402830185811115613669576136686134a8565b5b835b818110156136b057803567ffffffffffffffff81111561368e5761368d613347565b5b80860161369b898261344e565b8552602085019450505060208101905061366b565b5050509392505050565b600082601f8301126136cf576136ce613347565b5b81356136df848260208601613633565b91505092915050565b600080600080600080600060e0888a03121561370757613706612e95565b5b600088013567ffffffffffffffff81111561372557613724612e9a565b5b6137318a828b0161344e565b975050602088013567ffffffffffffffff81111561375257613751612e9a565b5b61375e8a828b0161344e565b965050604088013567ffffffffffffffff81111561377f5761377e612e9a565b5b61378b8a828b0161344e565b955050606061379c8a828b01612ef6565b945050608088013567ffffffffffffffff8111156137bd576137bc612e9a565b5b6137c98a828b01613516565b93505060a088013567ffffffffffffffff8111156137ea576137e9612e9a565b5b6137f68a828b016135d9565b92505060c088013567ffffffffffffffff81111561381757613816612e9a565b5b6138238a828b016136ba565b91505092959891949750929550565b600060c082019050818103600083015261384c8189612fb1565b905081810360208301526138608188612fb1565b905081810360408301526138748187612fb1565b90506138836060830186612f4b565b6138906080830185613156565b61389d60a08301846130ab565b979650505050505050565b6138b18161309f565b81146138bc57600080fd5b50565b6000813590506138ce816138a8565b92915050565b600080604083850312156138eb576138ea612e95565b5b60006138f985828601613197565b925050602061390a858286016138bf565b9150509250929050565b600067ffffffffffffffff82111561392f5761392e613351565b5b61393882612fa0565b9050602081019050919050565b600061395861395384613914565b6133b1565b9050828152602081018484840111156139745761397361334c565b5b61397f8482856133fd565b509392505050565b600082601f83011261399c5761399b613347565b5b81356139ac848260208601613945565b91505092915050565b600080600080608085870312156139cf576139ce612e95565b5b60006139dd87828801613197565b94505060206139ee87828801613197565b93505060406139ff87828801612ef6565b925050606085013567ffffffffffffffff811115613a2057613a1f612e9a565b5b613a2c87828801613987565b91505092959194509250565b6000604082019050613a4d60008301856130ab565b613a5a6020830184612f4b565b9392505050565b60008060408385031215613a7857613a77612e95565b5b6000613a8685828601613197565b9250506020613a9785828601613197565b9150509250929050565b7f4e487b7100000000000000000000000000000000000000000000000000000000600052602260045260246000fd5b60006002820490506001821680613ae857607f821691505b602082108103613afb57613afa613aa1565b5b50919050565b7f4e487b7100000000000000000000000000000000000000000000000000000000600052603260045260246000fd5b7f43616d706169676e20646f6573206e6f74206578697374000000000000000000600082015250565b6000613b66601783612f65565b9150613b7182613b30565b602082019050919050565b60006020820190508181036000830152613b9581613b59565b9050919050565b7f4e6f2061737369676e6564206c6576656c730000000000000000000000000000600082015250565b6000613bd2601283612f65565b9150613bdd82613b9c565b602082019050919050565b60006020820190508181036000830152613c0181613bc5565b9050919050565b7f4e6f204e465473206c65667420666f722074686973206c6576656c0000000000600082015250565b6000613c3e601b83612f65565b9150613c4982613c08565b602082019050919050565b60006020820190508181036000830152613c6d81613c31565b9050919050565b7f4e487b7100000000000000000000000000000000000000000000000000000000600052601160045260246000fd5b6000613cae82612ed5565b9150613cb983612ed5565b9250828203905081811115613cd157613cd0613c74565b5b92915050565b6000613ce282612ed5565b9150613ced83612ed5565b9250828201905080821115613d0557613d04613c74565b5b92915050565b60008190508160005260206000209050919050565b60008154613d2d81613ad0565b613d378186612f65565b94506001821660008114613d525760018114613d6857613d9b565b60ff198316865281151560200286019350613d9b565b613d7185613d0b565b60005b83811015613d9357815481890152600182019150602081019050613d74565b808801955050505b50505092915050565b6000606082019050613db96000830186612f4b565b613dc66020830185612f4b565b8181036040830152613dd88184613d20565b9050949350505050565b6000606082019050613df76000830186613156565b613e046020830185612f4b565b613e116040830184613156565b949350505050565b7f4e6f7420617574686f72697a6564000000000000000000000000000000000000600082015250565b6000613e4f600e83612f65565b9150613e5a82613e19565b602082019050919050565b60006020820190508181036000830152613e7e81613e42565b9050919050565b7f496e76616c6964206c6576656c00000000000000000000000000000000000000600082015250565b6000613ebb600d83612f65565b9150613ec682613e85565b602082019050919050565b60006020820190508181036000830152613eea81613eae565b9050919050565b7f436f6e7472696275746f7220616c72656164792061737369676e65642074686960008201527f73206c6576656c00000000000000000000000000000000000000000000000000602082015250565b6000613f4d602783612f65565b9150613f5882613ef1565b604082019050919050565b60006020820190508181036000830152613f7c81613f40565b9050919050565b7f4e465420646f6573206e6f742065786973740000000000000000000000000000600082015250565b6000613fb9601283612f65565b9150613fc482613f83565b602082019050919050565b60006020820190508181036000830152613fe881613fac565b9050919050565b7f4e4654207061796d656e7420616c7265616479206d6164650000000000000000600082015250565b6000614025601883612f65565b915061403082613fef565b602082019050919050565b6000602082019050818103600083015261405481614018565b9050919050565b7f4e6f207061796d656e742070726f766964656400000000000000000000000000600082015250565b6000614091601383612f65565b915061409c8261405b565b602082019050919050565b600060208201905081810360008301526140c081614084565b9050919050565b7f4c6576656c732064617461206d69736d61746368000000000000000000000000600082015250565b60006140fd601483612f65565b9150614108826140c7565b602082019050919050565b6000602082019050818103600083015261412c816140f0565b9050919050565b600081905092915050565b600061414982612f5a565b6141538185614133565b9350614163818560208601612f76565b80840191505092915050565b60008160601b9050919050565b60006141878261416f565b9050919050565b60006141998261417c565b9050919050565b6141b16141ac82613144565b61418e565b82525050565b60006141c3828761413e565b91506141cf828661413e565b91506141db828561413e565b91506141e782846141a0565b60148201915081905095945050505050565b7f43616d706169676e20616c726561647920657869737473000000000000000000600082015250565b600061422f601783612f65565b915061423a826141f9565b602082019050919050565b6000602082019050818103600083015261425e81614222565b9050919050565b60006020601f8301049050919050565b600082821b905092915050565b6000600883026142b27fffffffffffffffffffffffffffffffffffffffffffffffffffffffffffffffff82614275565b6142bc8683614275565b95508019841693508086168417925050509392505050565b6000819050919050565b60006142f96142f46142ef84612ed5565b6142d4565b612ed5565b9050919050565b6000819050919050565b614313836142de565b61432761431f82614300565b848454614282565b825550505050565b600090565b61433c61432f565b61434781848461430a565b505050565b5b8181101561436b57614360600082614334565b60018101905061434d565b5050565b601f8211156143b05761438181613d0b565b61438a84614265565b81016020851015614399578190505b6143ad6143a585614265565b83018261434c565b50505b505050565b600082821c905092915050565b60006143d3600019846008026143b5565b1980831691505092915050565b60006143ec83836143c2565b9150826002028217905092915050565b61440582612f5a565b67ffffffffffffffff81111561441e5761441d613351565b5b6144288254613ad0565b61443382828561436f565b600060209050601f8311600181146144665760008415614454578287015190505b61445e85826143e0565b8655506144c6565b601f19841661447486613d0b565b60005b8281101561449c57848901518255600182019150602085019450602081019050614477565b868310156144b957848901516144b5601f8916826143c2565b8355505b6001600288020188555050505b505050505050565b600081519050919050565b600082825260208201905092915050565b6000819050602082019050919050565b61450381613144565b82525050565b600061451583836144fa565b60208301905092915050565b6000602082019050919050565b6000614539826144ce565b61454381856144d9565b935061454e836144ea565b8060005b8381101561457f5781516145668882614509565b975061457183614521565b925050600181019050614552565b5085935050505092915050565b600060a08201905081810360008301526145a68188612fb1565b905081810360208301526145ba8187612fb1565b905081810360408301526145ce8186612fb1565b90506145dd6060830185612f4b565b81810360808301526145ef818461452e565b90509695505050505050565b6000614607828561413e565b9150614613828461413e565b91508190509392505050565b600081519050919050565b600082825260208201905092915050565b60006146468261461f565b614650818561462a565b9350614660818560208601612f76565b61466981612fa0565b840191505092915050565b60006080820190506146896000830187613156565b6146966020830186613156565b6146a36040830185612f4b565b81810360608301526146b5818461463b565b905095945050505050565b6000815190506146cf81613046565b92915050565b6000602082840312156146eb576146ea612e95565b5b60006146f9848285016146c0565b91505092915050565b60006040820190506147176000830185613156565b6147246020830184612f4b565b9392505050565b7f4e487b7100000000000000000000000000000000000000000000000000000000600052601260045260246000fdfea26469706673582212205f9bb62200c8db2aa982f60e79bb3ff6d969da4f439d818197175368fe2ad42e64736f6c634300081c0033",
  "linkReferences": {},
  "deployedLinkReferences": {}
}